{
  "_format": "hh-sol-artifact-1",
  "contractName": "AuctionFactory",
  "sourceName": "contracts/Auction.sol",
  "abi": [
    {
      "inputs": [],
      "stateMutability": "nonpayable",
      "type": "constructor"
    },
    {
      "anonymous": false,
      "inputs": [
        {
          "indexed": false,
          "internalType": "uint256",
          "name": "amount",
          "type": "uint256"
        },
        {
          "indexed": false,
          "internalType": "address",
          "name": "to",
          "type": "address"
        },
        {
          "indexed": false,
          "internalType": "uint256",
          "name": "when",
          "type": "uint256"
        }
      ],
      "name": "Transfer",
      "type": "event"
    },
    {
      "inputs": [
        {
          "internalType": "uint256",
          "name": "",
          "type": "uint256"
        }
      ],
      "name": "auctions",
      "outputs": [
        {
          "internalType": "address",
          "name": "",
          "type": "address"
        }
      ],
      "stateMutability": "view",
      "type": "function"
    },
    {
      "inputs": [
        {
          "internalType": "string",
          "name": "title",
          "type": "string"
        },
        {
          "internalType": "uint256",
          "name": "basePrice",
          "type": "uint256"
        }
      ],
      "name": "createAuction",
      "outputs": [],
      "stateMutability": "payable",
      "type": "function"
    },
    {
      "inputs": [],
      "name": "factoryOwner",
      "outputs": [
        {
          "internalType": "address payable",
          "name": "",
          "type": "address"
        }
      ],
      "stateMutability": "view",
      "type": "function"
    },
    {
      "inputs": [],
      "name": "getAuctions",
      "outputs": [
        {
          "internalType": "address[]",
          "name": "",
          "type": "address[]"
        }
      ],
      "stateMutability": "view",
      "type": "function"
    },
    {
      "inputs": [],
      "name": "transferAllCommissions",
      "outputs": [],
      "stateMutability": "nonpayable",
      "type": "function"
    }
  ],
  "bytecode": "0x608060405234801561001057600080fd5b50600180546001600160a01b031916331790556117f5806100326000396000f3fe60806040526004361061004a5760003560e01c80634273601c1461004f578063571a26a01461008c578063c205bfec146100ac578063d7c06919146100c3578063ff895239146100e5575b600080fd5b34801561005b57600080fd5b5060015461006f906001600160a01b031681565b6040516001600160a01b0390911681526020015b60405180910390f35b34801561009857600080fd5b5061006f6100a736600461038f565b6100f8565b3480156100b857600080fd5b506100c1610122565b005b3480156100cf57600080fd5b506100d8610218565b60405161008391906103a8565b6100c16100f336600461040b565b61027a565b6000818154811061010857600080fd5b6000918252602090912001546001600160a01b0316905081565b6001546001600160a01b031633146101925760405162461bcd60e51b815260206004820152602860248201527f6f6e6c7920666163746f7279206f776e65722063616e20646f2074686973206f6044820152673832b930ba34b7b760c11b60648201526084015b60405180910390fd5b600154604080514781526001600160a01b0390921660208301524282820152517f2e90d1cd7a5e9a5b99747c36130d866c8687bff313d44cdd245df73bcda436219181900360600190a16001546040516001600160a01b03909116904780156108fc02916000818181858888f19350505050158015610215573d6000803e3d6000fd5b50565b6060600080548060200260200160405190810160405280929190818152602001828054801561027057602002820191906000526020600020905b81546001600160a01b03168152600190910190602001808311610252575b5050505050905090565b655af3107a40003410156102f65760405162461bcd60e51b815260206004820152603960248201527f796f75206e65656420746f20706179206d696e696d756d20302e30303031206560448201527f7468657220746f2063726561746520616e2061756374696f6e000000000000006064820152608401610189565b600082823360405161030790610382565b610313939291906104c0565b604051809103906000f08015801561032f573d6000803e3d6000fd5b50600080546001810182559080527f290decd9548b62a8d60345a988386fc84ba6bc95484008f6362f93160ef3e5630180546001600160a01b0319166001600160a01b0392909216919091179055505050565b6112998061052783390190565b6000602082840312156103a157600080fd5b5035919050565b6020808252825182820181905260009190848201906040850190845b818110156103e95783516001600160a01b0316835292840192918401916001016103c4565b50909695505050505050565b634e487b7160e01b600052604160045260246000fd5b6000806040838503121561041e57600080fd5b823567ffffffffffffffff8082111561043657600080fd5b818501915085601f83011261044a57600080fd5b81358181111561045c5761045c6103f5565b604051601f8201601f19908116603f01168101908382118183101715610484576104846103f5565b8160405282815288602084870101111561049d57600080fd5b826020860160208301376000602093820184015298969091013596505050505050565b606081526000845180606084015260005b818110156104ee57602081880181015160808684010152016104d1565b506000608082850181019190915260208401959095526001600160a01b0393909316604083015250601f909101601f1916010191905056fe6080604052620000124261fd2062000080565b6003553480156200002257600080fd5b5060405162001299380380620012998339810160408190526200004591620000db565b60006200005384826200025d565b50600191909155600480546001600160a01b0319166001600160a01b039092169190911790555062000329565b80820180821115620000a257634e487b7160e01b600052601160045260246000fd5b92915050565b634e487b7160e01b600052604160045260246000fd5b80516001600160a01b0381168114620000d657600080fd5b919050565b600080600060608486031215620000f157600080fd5b83516001600160401b03808211156200010957600080fd5b818601915086601f8301126200011e57600080fd5b815181811115620001335762000133620000a8565b604051601f8201601f19908116603f011681019083821181831017156200015e576200015e620000a8565b816040528281526020935089848487010111156200017b57600080fd5b600091505b828210156200019f578482018401518183018501529083019062000180565b60008484830101528097505050508086015193505050620001c360408501620000be565b90509250925092565b600181811c90821680620001e157607f821691505b6020821081036200020257634e487b7160e01b600052602260045260246000fd5b50919050565b601f82111562000258576000816000526020600020601f850160051c81016020861015620002335750805b601f850160051c820191505b8181101562000254578281556001016200023f565b5050505b505050565b81516001600160401b03811115620002795762000279620000a8565b62000291816200028a8454620001cc565b8462000208565b602080601f831160018114620002c95760008415620002b05750858301515b600019600386901b1c1916600185901b17855562000254565b600085815260208120601f198616915b82811015620002fa57888601518255948401946001909101908401620002d9565b5085821015620003195787850151600019600388901b60f8161c191681555b5050505050600190811b01905550565b610f6080620003396000396000f3fe6080604052600436106100f35760003560e01c80638d0f6da31161008a578063c7876ea411610059578063c7876ea4146102bb578063d56b2889146102d1578063f30e3658146102e6578063fcc8f793146102ee57600080fd5b80638d0f6da3146102265780639d9a7fe9146102485780639f999da314610279578063aa37d6c31461029b57600080fd5b80634a79d50c116100c65780634a79d50c146101ab5780635958611e146101cd5780635dc5b365146101f157806387ceff091461021357600080fd5b806302d05d3f146100f85780633ccfd60b146101355780634051ddac1461014c5780634423c5f11461016e575b600080fd5b34801561010457600080fd5b50600454610118906001600160a01b031681565b6040516001600160a01b0390911681526020015b60405180910390f35b34801561014157600080fd5b5061014a61031b565b005b34801561015857600080fd5b5061016161051b565b60405161012c9190610d36565b34801561017a57600080fd5b5061018e610189366004610dba565b6106c0565b604080519283526001600160a01b0390911660208301520161012c565b3480156101b757600080fd5b506101c06106f7565b60405161012c9190610dd3565b3480156101d957600080fd5b506101e360035481565b60405190815260200161012c565b3480156101fd57600080fd5b50610206610785565b60405161012c9190610de6565b34801561021f57600080fd5b50426101e3565b34801561023257600080fd5b5061023b61081d565b60405161012c9190610e08565b34801561025457600080fd5b5060045461026990600160a01b900460ff1681565b604051901515815260200161012c565b34801561028557600080fd5b5061028e610892565b60405161012c9190610e1b565b3480156102a757600080fd5b506101e36102b6366004610dba565b6109a4565b3480156102c757600080fd5b506101e360015481565b3480156102dd57600080fd5b5061014a6109c5565b61014a610a8f565b3480156102fa57600080fd5b506101e3610309366004610e75565b60026020526000908152604090205481565b60055461036f5760405162461bcd60e51b815260206004820152601b60248201527f796f7520646964206e6f742062696420616e7920616d6f756e7421000000000060448201526064015b60405180910390fd5b60035442106104d3576004805460ff60a01b1916600160a01b179055600580546000919061039f90600190610eb4565b815481106103af576103af610ec7565b600091825260209091206002909102016001810154909150336001600160a01b03909116036104335760405162461bcd60e51b815260206004820152602a60248201527f796f752063616e206e6f742077697468647261772c20796f7520776f6e207468604482015269652061756374696f6e2160b01b6064820152608401610366565b33600090815260026020526040902054801561048b57604051339082156108fc029083906000818181858888f19350505050158015610476573d6000803e3d6000fd5b50503360009081526002602052604081205550565b60405162461bcd60e51b815260206004820152601b60248201527f796f7520646964206e6f742062696420616e7920616d6f756e742e00000000006044820152606401610366565b60405162461bcd60e51b815260206004820152601760248201527f61756374696f6e207374696c6c20636f6e74696e75652e0000000000000000006044820152606401610366565b6040805160e08101825260008082526060602083018190529282018190528282018190526080820181905260a082015260c081019190915260006040518060e00160405280306001600160a01b031681526020016000805461057c90610edd565b80601f01602080910402602001604051908101604052809291908181526020018280546105a890610edd565b80156105f55780601f106105ca576101008083540402835291602001916105f5565b820191906000526020600020905b8154815290600101906020018083116105d857829003601f168201915b50505050508152602001600460009054906101000a90046001600160a01b03166001600160a01b0316815260200160015481526020016003548152602001600460149054906101000a900460ff16151581526020016005805480602002602001604051908101604052809291908181526020016000905b828210156106b45760008481526020908190206040805180820190915260028502909101805482526001908101546001600160a01b031682840152908352909201910161066c565b50505091525092915050565b600581815481106106d057600080fd5b6000918252602090912060029091020180546001909101549091506001600160a01b031682565b6000805461070490610edd565b80601f016020809104026020016040519081016040528092919081815260200182805461073090610edd565b801561077d5780601f106107525761010080835404028352916020019161077d565b820191906000526020600020905b81548152906001019060200180831161076057829003601f168201915b505050505081565b6040805180820190915260008082526020820152600554156107f957600580546107b190600190610eb4565b815481106107c1576107c1610ec7565b60009182526020918290206040805180820190915260029092020180548252600101546001600160a01b031691810191909152919050565b506040805180820190915260015481526004546001600160a01b0316602082015290565b60606005805480602002602001604051908101604052809291908181526020016000905b828210156108895760008481526020908190206040805180820190915260028502909101805482526001908101546001600160a01b0316828401529083529092019101610841565b50505050905090565b6108cf6040518060a0016040528060006001600160a01b031681526020016060815260200160008152602001600081526020016000151581525090565b60006040518060a00160405280306001600160a01b03168152602001600080546108f890610edd565b80601f016020809104026020016040519081016040528092919081815260200182805461092490610edd565b80156109715780601f1061094657610100808354040283529160200191610971565b820191906000526020600020905b81548152906001019060200180831161095457829003601f168201915b505050918352505060015460208201526003546040820152600454600160a01b900460ff16151560609091015292915050565b336000908152600260205260408120546109be8184610eb4565b9392505050565b6004546001600160a01b03163314610a2b5760405162461bcd60e51b815260206004820152602360248201527f6f6e6c792063726561746f722063616e20646f2074686973206f7065726174696044820152626f6e2160e81b6064820152608401610366565b60035442106104d3576004805460ff60a01b1916600160a01b17905560055415610a8d576004546001546040516001600160a01b039092169181156108fc0291906000818181858888f19350505050158015610a8b573d6000803e3d6000fd5b505b565b6003544210610ae05760405162461bcd60e51b815260206004820152601d60248201527f6f682c2061756374696f6e20616c72656164792066696e69736865642e0000006044820152606401610366565b60015433600090815260026020526040902054610afd9034610f17565b11610b5d5760405162461bcd60e51b815260206004820152602a60248201527f796f75206e65656420746f2062696420686967686572207468616e206375727260448201526932b73a10383934b1b29760b11b6064820152608401610366565b6004546001600160a01b03163303610bb75760405162461bcd60e51b815260206004820152601d60248201527f6f776e6572206f662061756374696f6e2063616e206e6f7420626964210000006044820152606401610366565b3360009081526002602052604081208054349290610bd6908490610f17565b909155505033600081815260026020818152604080842054815180830190925280825291810194855260058054600180820183559190955281517f036b6384b5eca791c62761152d0c79bb0604c104a5fb6f4eb0703f3154bb3db0959094029485019390935593517f036b6384b5eca791c62761152d0c79bb0604c104a5fb6f4eb0703f3154bb3db190930180546001600160a01b0319166001600160a01b039094169390931790925581905590610c904261012c610f17565b6003555050565b6000815180845260005b81811015610cbd57602081850181015186830182015201610ca1565b506000602082860101526020601f19601f83011685010191505092915050565b60008151808452602080850194506020840160005b83811015610d2b57610d18878351805182526020908101516001600160a01b0316910152565b6040969096019590820190600101610cf2565b509495945050505050565b60208152600060018060a01b03808451166020840152602084015160e06040850152610d66610100850182610c97565b905081604086015116606085015260608501516080850152608085015160a085015260a0850151151560c085015260c08501519150601f198482030160e0850152610db18183610cdd565b95945050505050565b600060208284031215610dcc57600080fd5b5035919050565b6020815260006109be6020830184610c97565b815181526020808301516001600160a01b031690820152604081015b92915050565b6020815260006109be6020830184610cdd565b602080825282516001600160a01b03168282015282015160a06040830152600090610e4960c0840182610c97565b905060408401516060840152606084015160808401526080840151151560a08401528091505092915050565b600060208284031215610e8757600080fd5b81356001600160a01b03811681146109be57600080fd5b634e487b7160e01b600052601160045260246000fd5b81810381811115610e0257610e02610e9e565b634e487b7160e01b600052603260045260246000fd5b600181811c90821680610ef157607f821691505b602082108103610f1157634e487b7160e01b600052602260045260246000fd5b50919050565b80820180821115610e0257610e02610e9e56fea264697066735822122022e1bb5b07905bcd1120628c5bb0e337a09923ae6d14657fac8434c2d46c1ab464736f6c63430008180033a264697066735822122025ecef85fdfd5d210009d73987f779e3f3371f10c2f45ff852de43071769418c64736f6c63430008180033",
  "linkReferences": {},
  "deployedLinkReferences": {}
}