{
  "_format": "hh-sol-artifact-1",
  "contractName": "Auction",
  "sourceName": "contracts/Auction.sol",
  "abi": [
    {
      "inputs": [
        {
          "internalType": "string",
          "name": "_title",
          "type": "string"
        },
        {
          "internalType": "uint256",
          "name": "_basePrice",
          "type": "uint256"
        },
        {
          "internalType": "address payable",
          "name": "_creator",
          "type": "address"
        }
      ],
      "stateMutability": "nonpayable",
      "type": "constructor"
    },
    {
      "inputs": [],
      "name": "basePrice",
      "outputs": [
        {
          "internalType": "uint256",
          "name": "",
          "type": "uint256"
        }
      ],
      "stateMutability": "view",
      "type": "function"
    },
    {
      "inputs": [
        {
          "internalType": "address",
          "name": "",
          "type": "address"
        }
      ],
      "name": "bidders",
      "outputs": [
        {
          "internalType": "uint256",
          "name": "",
          "type": "uint256"
        }
      ],
      "stateMutability": "view",
      "type": "function"
    },
    {
      "inputs": [
        {
          "internalType": "uint256",
          "name": "",
          "type": "uint256"
        }
      ],
      "name": "bids",
      "outputs": [
        {
          "internalType": "uint256",
          "name": "amount",
          "type": "uint256"
        },
        {
          "internalType": "address payable",
          "name": "owner",
          "type": "address"
        }
      ],
      "stateMutability": "view",
      "type": "function"
    },
    {
      "inputs": [],
      "name": "completed",
      "outputs": [
        {
          "internalType": "bool",
          "name": "",
          "type": "bool"
        }
      ],
      "stateMutability": "view",
      "type": "function"
    },
    {
      "inputs": [],
      "name": "creator",
      "outputs": [
        {
          "internalType": "address payable",
          "name": "",
          "type": "address"
        }
      ],
      "stateMutability": "view",
      "type": "function"
    },
    {
      "inputs": [],
      "name": "finish",
      "outputs": [],
      "stateMutability": "nonpayable",
      "type": "function"
    },
    {
      "inputs": [],
      "name": "finishTime",
      "outputs": [
        {
          "internalType": "uint256",
          "name": "",
          "type": "uint256"
        }
      ],
      "stateMutability": "view",
      "type": "function"
    },
    {
      "inputs": [],
      "name": "getAllBids",
      "outputs": [
        {
          "components": [
            {
              "internalType": "uint256",
              "name": "amount",
              "type": "uint256"
            },
            {
              "internalType": "address payable",
              "name": "owner",
              "type": "address"
            }
          ],
          "internalType": "struct Auction.Bid[]",
          "name": "",
          "type": "tuple[]"
        }
      ],
      "stateMutability": "view",
      "type": "function"
    },
    {
      "inputs": [
        {
          "internalType": "uint256",
          "name": "nextAmount",
          "type": "uint256"
        }
      ],
      "name": "getAmountForBid",
      "outputs": [
        {
          "internalType": "uint256",
          "name": "",
          "type": "uint256"
        }
      ],
      "stateMutability": "view",
      "type": "function"
    },
    {
      "inputs": [],
      "name": "getBasicInfo",
      "outputs": [
        {
          "components": [
            {
              "internalType": "address",
              "name": "_id",
              "type": "address"
            },
            {
              "internalType": "string",
              "name": "title",
              "type": "string"
            },
            {
              "internalType": "uint256",
              "name": "basePrice",
              "type": "uint256"
            },
            {
              "internalType": "uint256",
              "name": "finishTime",
              "type": "uint256"
            },
            {
              "internalType": "bool",
              "name": "completed",
              "type": "bool"
            }
          ],
          "internalType": "struct Auction.BasicInfo",
          "name": "",
          "type": "tuple"
        }
      ],
      "stateMutability": "view",
      "type": "function"
    },
    {
      "inputs": [],
      "name": "getBlockTime",
      "outputs": [
        {
          "internalType": "uint256",
          "name": "",
          "type": "uint256"
        }
      ],
      "stateMutability": "view",
      "type": "function"
    },
    {
      "inputs": [],
      "name": "getLastBid",
      "outputs": [
        {
          "components": [
            {
              "internalType": "uint256",
              "name": "amount",
              "type": "uint256"
            },
            {
              "internalType": "address payable",
              "name": "owner",
              "type": "address"
            }
          ],
          "internalType": "struct Auction.Bid",
          "name": "",
          "type": "tuple"
        }
      ],
      "stateMutability": "view",
      "type": "function"
    },
    {
      "inputs": [],
      "name": "getSummary",
      "outputs": [
        {
          "components": [
            {
              "internalType": "address",
              "name": "_id",
              "type": "address"
            },
            {
              "internalType": "string",
              "name": "title",
              "type": "string"
            },
            {
              "internalType": "address",
              "name": "creator",
              "type": "address"
            },
            {
              "internalType": "uint256",
              "name": "basePrice",
              "type": "uint256"
            },
            {
              "internalType": "uint256",
              "name": "finishTime",
              "type": "uint256"
            },
            {
              "internalType": "address",
              "name": "lastBidder",
              "type": "address"
            },
            {
              "internalType": "bool",
              "name": "completed",
              "type": "bool"
            },
            {
              "components": [
                {
                  "internalType": "uint256",
                  "name": "amount",
                  "type": "uint256"
                },
                {
                  "internalType": "address payable",
                  "name": "owner",
                  "type": "address"
                }
              ],
              "internalType": "struct Auction.Bid[]",
              "name": "bids",
              "type": "tuple[]"
            }
          ],
          "internalType": "struct Auction.Summary",
          "name": "",
          "type": "tuple"
        }
      ],
      "stateMutability": "view",
      "type": "function"
    },
    {
      "inputs": [],
      "name": "lastBidder",
      "outputs": [
        {
          "internalType": "address",
          "name": "",
          "type": "address"
        }
      ],
      "stateMutability": "view",
      "type": "function"
    },
    {
      "inputs": [],
      "name": "makeBid",
      "outputs": [],
      "stateMutability": "payable",
      "type": "function"
    },
    {
      "inputs": [],
      "name": "title",
      "outputs": [
        {
          "internalType": "string",
          "name": "",
          "type": "string"
        }
      ],
      "stateMutability": "view",
      "type": "function"
    },
    {
      "inputs": [],
      "name": "withdraw",
      "outputs": [],
      "stateMutability": "nonpayable",
      "type": "function"
    }
  ],
  "bytecode": "0x6080604052620000124261fd2062000080565b6003553480156200002257600080fd5b5060405162001343380380620013438339810160408190526200004591620000db565b60006200005384826200025d565b50600191909155600480546001600160a01b0319166001600160a01b039092169190911790555062000329565b80820180821115620000a257634e487b7160e01b600052601160045260246000fd5b92915050565b634e487b7160e01b600052604160045260246000fd5b80516001600160a01b0381168114620000d657600080fd5b919050565b600080600060608486031215620000f157600080fd5b83516001600160401b03808211156200010957600080fd5b818601915086601f8301126200011e57600080fd5b815181811115620001335762000133620000a8565b604051601f8201601f19908116603f011681019083821181831017156200015e576200015e620000a8565b816040528281526020935089848487010111156200017b57600080fd5b600091505b828210156200019f578482018401518183018501529083019062000180565b60008484830101528097505050508086015193505050620001c360408501620000be565b90509250925092565b600181811c90821680620001e157607f821691505b6020821081036200020257634e487b7160e01b600052602260045260246000fd5b50919050565b601f82111562000258576000816000526020600020601f850160051c81016020861015620002335750805b601f850160051c820191505b8181101562000254578281556001016200023f565b5050505b505050565b81516001600160401b03811115620002795762000279620000a8565b62000291816200028a8454620001cc565b8462000208565b602080601f831160018114620002c95760008415620002b05750858301515b600019600386901b1c1916600185901b17855562000254565b600085815260208120601f198616915b82811015620002fa57888601518255948401946001909101908401620002d9565b5085821015620003195787850151600019600388901b60f8161c191681555b5050505050600190811b01905550565b61100a80620003396000396000f3fe6080604052600436106100fe5760003560e01c806387ceff0911610095578063aa37d6c311610064578063aa37d6c3146102c6578063c7876ea4146102e6578063d56b2889146102fc578063f30e365814610311578063fcc8f7931461031957600080fd5b806387ceff091461023e5780638d0f6da3146102515780639d9a7fe9146102735780639f999da3146102a457600080fd5b80634a79d50c116100d15780634a79d50c146101b65780635958611e146101d85780635dc5b365146101fc5780638547af301461021e57600080fd5b806302d05d3f146101035780633ccfd60b146101405780634051ddac146101575780634423c5f114610179575b600080fd5b34801561010f57600080fd5b50600454610123906001600160a01b031681565b6040516001600160a01b0390911681526020015b60405180910390f35b34801561014c57600080fd5b50610155610346565b005b34801561016357600080fd5b5061016c61053f565b6040516101379190610d66565b34801561018557600080fd5b50610199610194366004610e17565b6106e7565b604080519283526001600160a01b03909116602083015201610137565b3480156101c257600080fd5b506101cb61071e565b6040516101379190610e30565b3480156101e457600080fd5b506101ee60035481565b604051908152602001610137565b34801561020857600080fd5b506102116107ac565b6040516101379190610e43565b34801561022a57600080fd5b50600554610123906001600160a01b031681565b34801561024a57600080fd5b50426101ee565b34801561025d57600080fd5b50610266610844565b6040516101379190610e65565b34801561027f57600080fd5b5060055461029490600160a01b900460ff1681565b6040519015158152602001610137565b3480156102b057600080fd5b506102b96108b9565b6040516101379190610ec5565b3480156102d257600080fd5b506101ee6102e1366004610e17565b6109cb565b3480156102f257600080fd5b506101ee60015481565b34801561030857600080fd5b506101556109ec565b610155610ab6565b34801561032557600080fd5b506101ee610334366004610f1f565b60026020526000908152604090205481565b60065461039a5760405162461bcd60e51b815260206004820152601d60248201527f7468657265206973206e6f20776974686472617720666f7220796f752e00000060448201526064015b60405180910390fd5b60035442106104f7576005805460ff60a01b1916600160a01b17905560068054600091906103ca90600190610f5e565b815481106103da576103da610f71565b600091825260209091206002909102016001810154909150336001600160a01b03909116036104575760405162461bcd60e51b8152602060048201526024808201527f796f752063616e206e6f742077697468647261772c20796f752772652077696e6044820152636e65722160e01b6064820152608401610391565b3360009081526002602052604090205480156104af57604051339082156108fc029083906000818181858888f1935050505015801561049a573d6000803e3d6000fd5b50503360009081526002602052604081205550565b60405162461bcd60e51b815260206004820152601d60248201527f7468657265206973206e6f20776974686472617720666f7220796f752e0000006044820152606401610391565b60405162461bcd60e51b815260206004820152601760248201527f61756374696f6e207374696c6c20636f6e74696e75652e0000000000000000006044820152606401610391565b604080516101008101825260008082526060602083018190529282018190528282018190526080820181905260a0820181905260c082015260e08101919091526000604051806101000160405280306001600160a01b03168152602001600080546105a990610f87565b80601f01602080910402602001604051908101604052809291908181526020018280546105d590610f87565b80156106225780601f106105f757610100808354040283529160200191610622565b820191906000526020600020905b81548152906001019060200180831161060557829003601f168201915b50505091835250506004546001600160a01b0390811660208084019190915260015460408085019190915260035460608501526005549283166080850152600160a01b90920460ff16151560a08401526006805483518184028101840190945280845260c090940193909160009084015b828210156106db5760008481526020908190206040805180820190915260028502909101805482526001908101546001600160a01b0316828401529083529092019101610693565b50505091525092915050565b600681815481106106f757600080fd5b6000918252602090912060029091020180546001909101549091506001600160a01b031682565b6000805461072b90610f87565b80601f016020809104026020016040519081016040528092919081815260200182805461075790610f87565b80156107a45780601f10610779576101008083540402835291602001916107a4565b820191906000526020600020905b81548152906001019060200180831161078757829003601f168201915b505050505081565b60408051808201909152600080825260208201526006541561082057600680546107d890600190610f5e565b815481106107e8576107e8610f71565b60009182526020918290206040805180820190915260029092020180548252600101546001600160a01b031691810191909152919050565b506040805180820190915260015481526004546001600160a01b0316602082015290565b60606006805480602002602001604051908101604052809291908181526020016000905b828210156108b05760008481526020908190206040805180820190915260028502909101805482526001908101546001600160a01b0316828401529083529092019101610868565b50505050905090565b6108f66040518060a0016040528060006001600160a01b031681526020016060815260200160008152602001600081526020016000151581525090565b60006040518060a00160405280306001600160a01b031681526020016000805461091f90610f87565b80601f016020809104026020016040519081016040528092919081815260200182805461094b90610f87565b80156109985780601f1061096d57610100808354040283529160200191610998565b820191906000526020600020905b81548152906001019060200180831161097b57829003601f168201915b505050918352505060015460208201526003546040820152600554600160a01b900460ff16151560609091015292915050565b336000908152600260205260408120546109e58184610f5e565b9392505050565b6004546001600160a01b03163314610a525760405162461bcd60e51b815260206004820152602360248201527f6f6e6c792063726561746f722063616e20646f2074686973206f7065726174696044820152626f6e2160e81b6064820152608401610391565b60035442106104f7576005805460ff60a01b1916600160a01b17905560065415610ab4576004546001546040516001600160a01b039092169181156108fc0291906000818181858888f19350505050158015610ab2573d6000803e3d6000fd5b505b565b6003544210610b075760405162461bcd60e51b815260206004820152601d60248201527f6f682c2061756374696f6e20616c72656164792066696e69736865642e0000006044820152606401610391565b60015433600090815260026020526040902054610b249034610fc1565b11610b845760405162461bcd60e51b815260206004820152602a60248201527f796f75206e65656420746f2062696420686967686572207468616e206375727260448201526932b73a10383934b1b29760b11b6064820152608401610391565b6004546001600160a01b03163303610bde5760405162461bcd60e51b815260206004820152601d60248201527f6f776e6572206f662061756374696f6e2063616e206e6f7420626964210000006044820152606401610391565b3360009081526002602052604081208054349290610bfd908490610fc1565b90915550503360008181526002602081815260408084205481518083019092528082529181018581526006805460018181018355919096528251959094027ff652222313e28459528d920b65115c16c04f3efc82aaedc97be59f3f377c0d3f810195909555517ff652222313e28459528d920b65115c16c04f3efc82aaedc97be59f3f377c0d4090940180546001600160a01b03959095166001600160a01b03199586161790559181905560058054909316909317909155610cc0426096610fc1565b6003555050565b6000815180845260005b81811015610ced57602081850181015186830182015201610cd1565b506000602082860101526020601f19601f83011685010191505092915050565b60008151808452602080850194506020840160005b83811015610d5b57610d48878351805182526020908101516001600160a01b0316910152565b6040969096019590820190600101610d22565b509495945050505050565b602080825282516001600160a01b0316828201528201516101006040830181905260009190610d99610120850183610cc7565b91506040850151610db560608601826001600160a01b03169052565b5060608501516080850152608085015160a085015260a0850151610de460c08601826001600160a01b03169052565b5060c085015180151560e08601525060e0850151848303601f190182860152610e0d8382610d0d565b9695505050505050565b600060208284031215610e2957600080fd5b5035919050565b6020815260006109e56020830184610cc7565b815181526020808301516001600160a01b031690820152604081015b92915050565b602080825282518282018190526000919060409081850190868401855b82811015610eb857610ea8848351805182526020908101516001600160a01b0316910152565b9284019290850190600101610e82565b5091979650505050505050565b602080825282516001600160a01b03168282015282015160a06040830152600090610ef360c0840182610cc7565b905060408401516060840152606084015160808401526080840151151560a08401528091505092915050565b600060208284031215610f3157600080fd5b81356001600160a01b03811681146109e557600080fd5b634e487b7160e01b600052601160045260246000fd5b81810381811115610e5f57610e5f610f48565b634e487b7160e01b600052603260045260246000fd5b600181811c90821680610f9b57607f821691505b602082108103610fbb57634e487b7160e01b600052602260045260246000fd5b50919050565b80820180821115610e5f57610e5f610f4856fea26469706673582212207ef458e11e982b683ebe002cd29fa30cbdc4b4c4571747ac150f880616cc19de64736f6c63430008180033",
  "linkReferences": {},
  "deployedLinkReferences": {}
}