{
  "_format": "hh-sol-artifact-1",
  "contractName": "AuctionFactory",
  "sourceName": "contracts/AuctionFactory.sol",
  "abi": [
    {
      "inputs": [],
      "stateMutability": "nonpayable",
      "type": "constructor"
    },
    {
      "anonymous": false,
      "inputs": [
        {
          "indexed": false,
          "internalType": "uint256",
          "name": "amount",
          "type": "uint256"
        },
        {
          "indexed": false,
          "internalType": "address",
          "name": "to",
          "type": "address"
        },
        {
          "indexed": false,
          "internalType": "uint256",
          "name": "when",
          "type": "uint256"
        }
      ],
      "name": "Transfer",
      "type": "event"
    },
    {
      "inputs": [
        {
          "internalType": "uint256",
          "name": "",
          "type": "uint256"
        }
      ],
      "name": "auctions",
      "outputs": [
        {
          "internalType": "address",
          "name": "",
          "type": "address"
        }
      ],
      "stateMutability": "view",
      "type": "function"
    },
    {
      "inputs": [
        {
          "internalType": "string",
          "name": "title",
          "type": "string"
        },
        {
          "internalType": "uint256",
          "name": "basePrice",
          "type": "uint256"
        }
      ],
      "name": "createAuction",
      "outputs": [],
      "stateMutability": "payable",
      "type": "function"
    },
    {
      "inputs": [],
      "name": "factoryOwner",
      "outputs": [
        {
          "internalType": "address payable",
          "name": "",
          "type": "address"
        }
      ],
      "stateMutability": "view",
      "type": "function"
    },
    {
      "inputs": [],
      "name": "getAuctions",
      "outputs": [
        {
          "internalType": "address[]",
          "name": "",
          "type": "address[]"
        }
      ],
      "stateMutability": "view",
      "type": "function"
    },
    {
      "inputs": [],
      "name": "transferAllCommissions",
      "outputs": [],
      "stateMutability": "nonpayable",
      "type": "function"
    }
  ],
  "bytecode": "0x608060405234801561001057600080fd5b50600180546001600160a01b031916331790556118df806100326000396000f3fe60806040526004361061004a5760003560e01c80634273601c1461004f578063571a26a01461008c578063c205bfec146100ac578063d7c06919146100c3578063ff895239146100e5575b600080fd5b34801561005b57600080fd5b5060015461006f906001600160a01b031681565b6040516001600160a01b0390911681526020015b60405180910390f35b34801561009857600080fd5b5061006f6100a736600461038f565b6100f8565b3480156100b857600080fd5b506100c1610122565b005b3480156100cf57600080fd5b506100d8610218565b60405161008391906103a8565b6100c16100f336600461040b565b61027a565b6000818154811061010857600080fd5b6000918252602090912001546001600160a01b0316905081565b6001546001600160a01b031633146101925760405162461bcd60e51b815260206004820152602860248201527f6f6e6c7920666163746f7279206f776e65722063616e20646f2074686973206f6044820152673832b930ba34b7b760c11b60648201526084015b60405180910390fd5b600154604080514781526001600160a01b0390921660208301524282820152517f2e90d1cd7a5e9a5b99747c36130d866c8687bff313d44cdd245df73bcda436219181900360600190a16001546040516001600160a01b03909116904780156108fc02916000818181858888f19350505050158015610215573d6000803e3d6000fd5b50565b6060600080548060200260200160405190810160405280929190818152602001828054801561027057602002820191906000526020600020905b81546001600160a01b03168152600190910190602001808311610252575b5050505050905090565b655af3107a40003410156102f65760405162461bcd60e51b815260206004820152603960248201527f796f75206e65656420746f20706179206d696e696d756d20302e30303031206560448201527f7468657220746f2063726561746520616e2061756374696f6e000000000000006064820152608401610189565b600082823360405161030790610382565b610313939291906104c0565b604051809103906000f08015801561032f573d6000803e3d6000fd5b50600080546001810182559080527f290decd9548b62a8d60345a988386fc84ba6bc95484008f6362f93160ef3e5630180546001600160a01b0319166001600160a01b0392909216919091179055505050565b6113838061052783390190565b6000602082840312156103a157600080fd5b5035919050565b6020808252825182820181905260009190848201906040850190845b818110156103e95783516001600160a01b0316835292840192918401916001016103c4565b50909695505050505050565b634e487b7160e01b600052604160045260246000fd5b6000806040838503121561041e57600080fd5b823567ffffffffffffffff8082111561043657600080fd5b818501915085601f83011261044a57600080fd5b81358181111561045c5761045c6103f5565b604051601f8201601f19908116603f01168101908382118183101715610484576104846103f5565b8160405282815288602084870101111561049d57600080fd5b826020860160208301376000602093820184015298969091013596505050505050565b606081526000845180606084015260005b818110156104ee57602081880181015160808684010152016104d1565b506000608082850181019190915260208401959095526001600160a01b0393909316604083015250601f909101601f1916010191905056fe6080604052620000124261fd2062000080565b6003553480156200002257600080fd5b5060405162001383380380620013838339810160408190526200004591620000db565b60006200005384826200025d565b50600191909155600480546001600160a01b0319166001600160a01b039092169190911790555062000329565b80820180821115620000a257634e487b7160e01b600052601160045260246000fd5b92915050565b634e487b7160e01b600052604160045260246000fd5b80516001600160a01b0381168114620000d657600080fd5b919050565b600080600060608486031215620000f157600080fd5b83516001600160401b03808211156200010957600080fd5b818601915086601f8301126200011e57600080fd5b815181811115620001335762000133620000a8565b604051601f8201601f19908116603f011681019083821181831017156200015e576200015e620000a8565b816040528281526020935089848487010111156200017b57600080fd5b600091505b828210156200019f578482018401518183018501529083019062000180565b60008484830101528097505050508086015193505050620001c360408501620000be565b90509250925092565b600181811c90821680620001e157607f821691505b6020821081036200020257634e487b7160e01b600052602260045260246000fd5b50919050565b601f82111562000258576000816000526020600020601f850160051c81016020861015620002335750805b601f850160051c820191505b8181101562000254578281556001016200023f565b5050505b505050565b81516001600160401b03811115620002795762000279620000a8565b62000291816200028a8454620001cc565b8462000208565b602080601f831160018114620002c95760008415620002b05750858301515b600019600386901b1c1916600185901b17855562000254565b600085815260208120601f198616915b82811015620002fa57888601518255948401946001909101908401620002d9565b5085821015620003195787850151600019600388901b60f8161c191681555b5050505050600190811b01905550565b61104a80620003396000396000f3fe6080604052600436106100fe5760003560e01c806387ceff0911610095578063aa37d6c311610064578063aa37d6c3146102c6578063c7876ea4146102e6578063d56b2889146102fc578063f30e365814610311578063fcc8f7931461031957600080fd5b806387ceff091461023e5780638d0f6da3146102515780639d9a7fe9146102735780639f999da3146102a457600080fd5b80634a79d50c116100d15780634a79d50c146101b65780635958611e146101d85780635dc5b365146101fc5780638547af301461021e57600080fd5b806302d05d3f146101035780633ccfd60b146101405780634051ddac146101575780634423c5f114610179575b600080fd5b34801561010f57600080fd5b50600454610123906001600160a01b031681565b6040516001600160a01b0390911681526020015b60405180910390f35b34801561014c57600080fd5b50610155610346565b005b34801561016357600080fd5b5061016c610544565b6040516101379190610d86565b34801561018557600080fd5b50610199610194366004610e4d565b6106fa565b604080519283526001600160a01b03909116602083015201610137565b3480156101c257600080fd5b506101cb610731565b6040516101379190610e66565b3480156101e457600080fd5b506101ee60035481565b604051908152602001610137565b34801561020857600080fd5b506102116107bf565b6040516101379190610e79565b34801561022a57600080fd5b50600554610123906001600160a01b031681565b34801561024a57600080fd5b50426101ee565b34801561025d57600080fd5b50610266610857565b6040516101379190610e9b565b34801561027f57600080fd5b5060055461029490600160a01b900460ff1681565b6040519015158152602001610137565b3480156102b057600080fd5b506102b96108cc565b6040516101379190610efb565b3480156102d257600080fd5b506101ee6102e1366004610e4d565b6109eb565b3480156102f257600080fd5b506101ee60015481565b34801561030857600080fd5b50610155610a0c565b610155610ad6565b34801561032557600080fd5b506101ee610334366004610f5f565b60026020526000908152604090205481565b60065461039a5760405162461bcd60e51b815260206004820152601d60248201527f7468657265206973206e6f20776974686472617720666f7220796f752e00000060448201526064015b60405180910390fd5b60035442106104fc576005805460ff60a01b1916600160a01b17905560068054600091906103ca90600190610f9e565b815481106103da576103da610fb1565b600091825260209091206002909102016001810154909150336001600160a01b039091160361045c5760405162461bcd60e51b815260206004820152602860248201527f796f752063616e206e6f742077697468647261772c20796f75277265207468656044820152672077696e6e65722160c01b6064820152608401610391565b3360009081526002602052604090205480156104b457604051339082156108fc029083906000818181858888f1935050505015801561049f573d6000803e3d6000fd5b50503360009081526002602052604081205550565b60405162461bcd60e51b815260206004820152601d60248201527f7468657265206973206e6f20776974686472617720666f7220796f752e0000006044820152606401610391565b60405162461bcd60e51b815260206004820152601760248201527f61756374696f6e207374696c6c20636f6e74696e75652e0000000000000000006044820152606401610391565b604080516101208101825260008082526060602083018190529282018190528282018190526080820181905260a0820181905260c0820181905260e08201526101008101919091526000604051806101200160405280306001600160a01b03168152602001600080546105b690610fc7565b80601f01602080910402602001604051908101604052809291908181526020018280546105e290610fc7565b801561062f5780601f106106045761010080835404028352916020019161062f565b820191906000526020600020905b81548152906001019060200180831161061257829003601f168201915b50505091835250506004546001600160a01b03908116602080840191909152600154604080850191909152600354606085015260055492831660808501524260a0850152600160a01b90920460ff16151560c08401526006805483518184028101840190945280845260e090940193909160009084015b828210156106ee5760008481526020908190206040805180820190915260028502909101805482526001908101546001600160a01b03168284015290835290920191016106a6565b50505091525092915050565b6006818154811061070a57600080fd5b6000918252602090912060029091020180546001909101549091506001600160a01b031682565b6000805461073e90610fc7565b80601f016020809104026020016040519081016040528092919081815260200182805461076a90610fc7565b80156107b75780601f1061078c576101008083540402835291602001916107b7565b820191906000526020600020905b81548152906001019060200180831161079a57829003601f168201915b505050505081565b60408051808201909152600080825260208201526006541561083357600680546107eb90600190610f9e565b815481106107fb576107fb610fb1565b60009182526020918290206040805180820190915260029092020180548252600101546001600160a01b031691810191909152919050565b506040805180820190915260015481526004546001600160a01b0316602082015290565b60606006805480602002602001604051908101604052809291908181526020016000905b828210156108c35760008481526020908190206040805180820190915260028502909101805482526001908101546001600160a01b031682840152908352909201910161087b565b50505050905090565b6109106040518060c0016040528060006001600160a01b03168152602001606081526020016000815260200160008152602001600081526020016000151581525090565b60006040518060c00160405280306001600160a01b031681526020016000805461093990610fc7565b80601f016020809104026020016040519081016040528092919081815260200182805461096590610fc7565b80156109b25780601f10610987576101008083540402835291602001916109b2565b820191906000526020600020905b81548152906001019060200180831161099557829003601f168201915b505050918352505060015460208201526003546040820152426060820152600554600160a01b900460ff16151560809091015292915050565b33600090815260026020526040812054610a058184610f9e565b9392505050565b6004546001600160a01b03163314610a725760405162461bcd60e51b815260206004820152602360248201527f6f6e6c792063726561746f722063616e20646f2074686973206f7065726174696044820152626f6e2160e81b6064820152608401610391565b60035442106104fc576005805460ff60a01b1916600160a01b17905560065415610ad4576004546001546040516001600160a01b039092169181156108fc0291906000818181858888f19350505050158015610ad2573d6000803e3d6000fd5b505b565b6003544210610b275760405162461bcd60e51b815260206004820152601d60248201527f6f682c2061756374696f6e20616c72656164792066696e69736865642e0000006044820152606401610391565b60015433600090815260026020526040902054610b449034611001565b11610ba45760405162461bcd60e51b815260206004820152602a60248201527f796f75206e65656420746f2062696420686967686572207468616e206375727260448201526932b73a10383934b1b29760b11b6064820152608401610391565b6004546001600160a01b03163303610bfe5760405162461bcd60e51b815260206004820152601d60248201527f6f776e6572206f662061756374696f6e2063616e206e6f7420626964210000006044820152606401610391565b3360009081526002602052604081208054349290610c1d908490611001565b90915550503360008181526002602081815260408084205481518083019092528082529181018581526006805460018181018355919096528251959094027ff652222313e28459528d920b65115c16c04f3efc82aaedc97be59f3f377c0d3f810195909555517ff652222313e28459528d920b65115c16c04f3efc82aaedc97be59f3f377c0d4090940180546001600160a01b03959095166001600160a01b03199586161790559181905560058054909316909317909155610ce0426096611001565b6003555050565b6000815180845260005b81811015610d0d57602081850181015186830182015201610cf1565b506000602082860101526020601f19601f83011685010191505092915050565b60008151808452602080850194506020840160005b83811015610d7b57610d68878351805182526020908101516001600160a01b0316910152565b6040969096019590820190600101610d42565b509495945050505050565b60208152610da06020820183516001600160a01b03169052565b60006020830151610120806040850152610dbe610140850183610ce7565b91506040850151610dda60608601826001600160a01b03169052565b5060608501516080850152608085015160a085015260a0850151610e0960c08601826001600160a01b03169052565b5060c085015160e085015260e0850151610100610e298187018315159052565b860151858403601f1901838701529050610e438382610d2d565b9695505050505050565b600060208284031215610e5f57600080fd5b5035919050565b602081526000610a056020830184610ce7565b815181526020808301516001600160a01b031690820152604081015b92915050565b602080825282518282018190526000919060409081850190868401855b82811015610eee57610ede848351805182526020908101516001600160a01b0316910152565b9284019290850190600101610eb8565b5091979650505050505050565b602080825282516001600160a01b03168282015282015160c06040830152600090610f2960e0840182610ce7565b90506040840151606084015260608401516080840152608084015160a084015260a0840151151560c08401528091505092915050565b600060208284031215610f7157600080fd5b81356001600160a01b0381168114610a0557600080fd5b634e487b7160e01b600052601160045260246000fd5b81810381811115610e9557610e95610f88565b634e487b7160e01b600052603260045260246000fd5b600181811c90821680610fdb57607f821691505b602082108103610ffb57634e487b7160e01b600052602260045260246000fd5b50919050565b80820180821115610e9557610e95610f8856fea2646970667358221220f22b8866139ce3bd1f2e5d6ecb1ee0e4cbd9796672efd2af211198ede99d633964736f6c63430008180033a26469706673582212209574f7d072c9353eaad93bb9358d7dcaa5164c0ebc861c84f8991ca7413bcab664736f6c63430008180033",
  "linkReferences": {},
  "deployedLinkReferences": {}
}