{
  "_format": "hh-sol-artifact-1",
  "contractName": "Auction",
  "sourceName": "contracts/Auction.sol",
  "abi": [
    {
      "inputs": [
        {
          "internalType": "string",
          "name": "_title",
          "type": "string"
        },
        {
          "internalType": "string",
          "name": "_desc",
          "type": "string"
        },
        {
          "internalType": "uint256",
          "name": "_basePrice",
          "type": "uint256"
        },
        {
          "internalType": "address payable",
          "name": "_creator",
          "type": "address"
        }
      ],
      "stateMutability": "nonpayable",
      "type": "constructor"
    },
    {
      "inputs": [],
      "name": "basePrice",
      "outputs": [
        {
          "internalType": "uint256",
          "name": "",
          "type": "uint256"
        }
      ],
      "stateMutability": "view",
      "type": "function"
    },
    {
      "inputs": [
        {
          "internalType": "address",
          "name": "",
          "type": "address"
        }
      ],
      "name": "bidders",
      "outputs": [
        {
          "internalType": "uint256",
          "name": "",
          "type": "uint256"
        }
      ],
      "stateMutability": "view",
      "type": "function"
    },
    {
      "inputs": [
        {
          "internalType": "uint256",
          "name": "",
          "type": "uint256"
        }
      ],
      "name": "bids",
      "outputs": [
        {
          "internalType": "uint256",
          "name": "amount",
          "type": "uint256"
        },
        {
          "internalType": "address payable",
          "name": "owner",
          "type": "address"
        }
      ],
      "stateMutability": "view",
      "type": "function"
    },
    {
      "inputs": [],
      "name": "completed",
      "outputs": [
        {
          "internalType": "bool",
          "name": "",
          "type": "bool"
        }
      ],
      "stateMutability": "view",
      "type": "function"
    },
    {
      "inputs": [],
      "name": "creator",
      "outputs": [
        {
          "internalType": "address payable",
          "name": "",
          "type": "address"
        }
      ],
      "stateMutability": "view",
      "type": "function"
    },
    {
      "inputs": [],
      "name": "desc",
      "outputs": [
        {
          "internalType": "string",
          "name": "",
          "type": "string"
        }
      ],
      "stateMutability": "view",
      "type": "function"
    },
    {
      "inputs": [],
      "name": "finish",
      "outputs": [],
      "stateMutability": "nonpayable",
      "type": "function"
    },
    {
      "inputs": [],
      "name": "finishTime",
      "outputs": [
        {
          "internalType": "uint256",
          "name": "",
          "type": "uint256"
        }
      ],
      "stateMutability": "view",
      "type": "function"
    },
    {
      "inputs": [],
      "name": "getAllBids",
      "outputs": [
        {
          "components": [
            {
              "internalType": "uint256",
              "name": "amount",
              "type": "uint256"
            },
            {
              "internalType": "address payable",
              "name": "owner",
              "type": "address"
            }
          ],
          "internalType": "struct Auction.Bid[]",
          "name": "",
          "type": "tuple[]"
        }
      ],
      "stateMutability": "view",
      "type": "function"
    },
    {
      "inputs": [
        {
          "internalType": "uint256",
          "name": "nextAmount",
          "type": "uint256"
        }
      ],
      "name": "getAmountForBid",
      "outputs": [
        {
          "internalType": "uint256",
          "name": "",
          "type": "uint256"
        }
      ],
      "stateMutability": "view",
      "type": "function"
    },
    {
      "inputs": [],
      "name": "getBasicInfo",
      "outputs": [
        {
          "components": [
            {
              "internalType": "address",
              "name": "_id",
              "type": "address"
            },
            {
              "internalType": "string",
              "name": "title",
              "type": "string"
            },
            {
              "internalType": "uint256",
              "name": "basePrice",
              "type": "uint256"
            },
            {
              "internalType": "uint256",
              "name": "finishTime",
              "type": "uint256"
            },
            {
              "internalType": "uint256",
              "name": "blockTime",
              "type": "uint256"
            },
            {
              "internalType": "bool",
              "name": "completed",
              "type": "bool"
            }
          ],
          "internalType": "struct Auction.BasicInfo",
          "name": "",
          "type": "tuple"
        }
      ],
      "stateMutability": "view",
      "type": "function"
    },
    {
      "inputs": [],
      "name": "getBlockTime",
      "outputs": [
        {
          "internalType": "uint256",
          "name": "",
          "type": "uint256"
        }
      ],
      "stateMutability": "view",
      "type": "function"
    },
    {
      "inputs": [],
      "name": "getLastBid",
      "outputs": [
        {
          "components": [
            {
              "internalType": "uint256",
              "name": "amount",
              "type": "uint256"
            },
            {
              "internalType": "address payable",
              "name": "owner",
              "type": "address"
            }
          ],
          "internalType": "struct Auction.Bid",
          "name": "",
          "type": "tuple"
        }
      ],
      "stateMutability": "view",
      "type": "function"
    },
    {
      "inputs": [],
      "name": "getSummary",
      "outputs": [
        {
          "components": [
            {
              "internalType": "address",
              "name": "_id",
              "type": "address"
            },
            {
              "internalType": "string",
              "name": "title",
              "type": "string"
            },
            {
              "internalType": "string",
              "name": "desc",
              "type": "string"
            },
            {
              "internalType": "address",
              "name": "creator",
              "type": "address"
            },
            {
              "internalType": "uint256",
              "name": "basePrice",
              "type": "uint256"
            },
            {
              "internalType": "uint256",
              "name": "finishTime",
              "type": "uint256"
            },
            {
              "internalType": "address",
              "name": "lastBidder",
              "type": "address"
            },
            {
              "internalType": "uint256",
              "name": "blockTime",
              "type": "uint256"
            },
            {
              "internalType": "bool",
              "name": "completed",
              "type": "bool"
            },
            {
              "components": [
                {
                  "internalType": "uint256",
                  "name": "amount",
                  "type": "uint256"
                },
                {
                  "internalType": "address payable",
                  "name": "owner",
                  "type": "address"
                }
              ],
              "internalType": "struct Auction.Bid[]",
              "name": "bids",
              "type": "tuple[]"
            }
          ],
          "internalType": "struct Auction.Summary",
          "name": "",
          "type": "tuple"
        }
      ],
      "stateMutability": "view",
      "type": "function"
    },
    {
      "inputs": [],
      "name": "lastBidder",
      "outputs": [
        {
          "internalType": "address",
          "name": "",
          "type": "address"
        }
      ],
      "stateMutability": "view",
      "type": "function"
    },
    {
      "inputs": [],
      "name": "makeBid",
      "outputs": [],
      "stateMutability": "payable",
      "type": "function"
    },
    {
      "inputs": [],
      "name": "title",
      "outputs": [
        {
          "internalType": "string",
          "name": "",
          "type": "string"
        }
      ],
      "stateMutability": "view",
      "type": "function"
    },
    {
      "inputs": [],
      "name": "withdraw",
      "outputs": [],
      "stateMutability": "nonpayable",
      "type": "function"
    }
  ],
  "bytecode": "0x6080604052620000124261fd2062000091565b6004553480156200002257600080fd5b50604051620014d9380380620014d9833981016040819052620000459162000181565b6000620000538582620002a7565b506001620000628482620002a7565b50600291909155600580546001600160a01b0319166001600160a01b0390921691909117905550620003739050565b80820180821115620000b357634e487b7160e01b600052601160045260246000fd5b92915050565b634e487b7160e01b600052604160045260246000fd5b600082601f830112620000e157600080fd5b81516001600160401b0380821115620000fe57620000fe620000b9565b604051601f8301601f19908116603f01168101908282118183101715620001295762000129620000b9565b81604052838152602092508660208588010111156200014757600080fd5b600091505b838210156200016b57858201830151818301840152908201906200014c565b6000602085830101528094505050505092915050565b600080600080608085870312156200019857600080fd5b84516001600160401b0380821115620001b057600080fd5b620001be88838901620000cf565b95506020870151915080821115620001d557600080fd5b50620001e487828801620000cf565b60408701516060880151919550935090506001600160a01b03811681146200020b57600080fd5b939692955090935050565b600181811c908216806200022b57607f821691505b6020821081036200024c57634e487b7160e01b600052602260045260246000fd5b50919050565b601f821115620002a2576000816000526020600020601f850160051c810160208610156200027d5750805b601f850160051c820191505b818110156200029e5782815560010162000289565b5050505b505050565b81516001600160401b03811115620002c357620002c3620000b9565b620002db81620002d4845462000216565b8462000252565b602080601f831160018114620003135760008415620002fa5750858301515b600019600386901b1c1916600185901b1785556200029e565b600085815260208120601f198616915b82811015620003445788860151825594840194600190910190840162000323565b5085821015620003635787850151600019600388901b60f8161c191681555b5050505050600190811b01905550565b61115680620003836000396000f3fe6080604052600436106101095760003560e01c806387ceff0911610095578063aa37d6c311610064578063aa37d6c3146102e6578063c7876ea414610306578063d56b28891461031c578063f30e365814610331578063fcc8f7931461033957600080fd5b806387ceff091461025e5780638d0f6da3146102715780639d9a7fe9146102935780639f999da3146102c457600080fd5b80634a79d50c116100dc5780634a79d50c146101c157806355f150f1146101e35780635958611e146101f85780635dc5b3651461021c5780638547af301461023e57600080fd5b806302d05d3f1461010e5780633ccfd60b1461014b5780634051ddac146101625780634423c5f114610184575b600080fd5b34801561011a57600080fd5b5060055461012e906001600160a01b031681565b6040516001600160a01b0390911681526020015b60405180910390f35b34801561015757600080fd5b50610160610366565b005b34801561016e57600080fd5b50610177610564565b6040516101429190610e6e565b34801561019057600080fd5b506101a461019f366004610f59565b6107d5565b604080519283526001600160a01b03909116602083015201610142565b3480156101cd57600080fd5b506101d661080c565b6040516101429190610f72565b3480156101ef57600080fd5b506101d661089a565b34801561020457600080fd5b5061020e60045481565b604051908152602001610142565b34801561022857600080fd5b506102316108a7565b6040516101429190610f85565b34801561024a57600080fd5b5060065461012e906001600160a01b031681565b34801561026a57600080fd5b504261020e565b34801561027d57600080fd5b5061028661093f565b6040516101429190610fa7565b34801561029f57600080fd5b506006546102b490600160a01b900460ff1681565b6040519015158152602001610142565b3480156102d057600080fd5b506102d96109b4565b6040516101429190611007565b3480156102f257600080fd5b5061020e610301366004610f59565b610ad3565b34801561031257600080fd5b5061020e60025481565b34801561032857600080fd5b50610160610af4565b610160610bbe565b34801561034557600080fd5b5061020e61035436600461106b565b60036020526000908152604090205481565b6007546103ba5760405162461bcd60e51b815260206004820152601d60248201527f7468657265206973206e6f20776974686472617720666f7220796f752e00000060448201526064015b60405180910390fd5b600454421061051c576006805460ff60a01b1916600160a01b17905560078054600091906103ea906001906110aa565b815481106103fa576103fa6110bd565b600091825260209091206002909102016001810154909150336001600160a01b039091160361047c5760405162461bcd60e51b815260206004820152602860248201527f796f752063616e206e6f742077697468647261772c20796f75277265207468656044820152672077696e6e65722160c01b60648201526084016103b1565b3360009081526003602052604090205480156104d457604051339082156108fc029083906000818181858888f193505050501580156104bf573d6000803e3d6000fd5b50503360009081526003602052604081205550565b60405162461bcd60e51b815260206004820152601d60248201527f7468657265206973206e6f20776974686472617720666f7220796f752e00000060448201526064016103b1565b60405162461bcd60e51b815260206004820152601760248201527f61756374696f6e207374696c6c20636f6e74696e75652e00000000000000000060448201526064016103b1565b6105d760405180610140016040528060006001600160a01b03168152602001606081526020016060815260200160006001600160a01b03168152602001600081526020016000815260200160006001600160a01b0316815260200160008152602001600015158152602001606081525090565b6000604051806101400160405280306001600160a01b0316815260200160008054610601906110d3565b80601f016020809104026020016040519081016040528092919081815260200182805461062d906110d3565b801561067a5780601f1061064f5761010080835404028352916020019161067a565b820191906000526020600020905b81548152906001019060200180831161065d57829003601f168201915b5050505050815260200160018054610691906110d3565b80601f01602080910402602001604051908101604052809291908181526020018280546106bd906110d3565b801561070a5780601f106106df5761010080835404028352916020019161070a565b820191906000526020600020905b8154815290600101906020018083116106ed57829003601f168201915b50505091835250506005546001600160a01b03908116602080840191909152600254604080850191909152600454606085015260065492831660808501524260a0850152600160a01b90920460ff16151560c08401526007805483518184028101840190945280845260e090940193909160009084015b828210156107c95760008481526020908190206040805180820190915260028502909101805482526001908101546001600160a01b0316828401529083529092019101610781565b50505091525092915050565b600781815481106107e557600080fd5b6000918252602090912060029091020180546001909101549091506001600160a01b031682565b60008054610819906110d3565b80601f0160208091040260200160405190810160405280929190818152602001828054610845906110d3565b80156108925780601f1061086757610100808354040283529160200191610892565b820191906000526020600020905b81548152906001019060200180831161087557829003601f168201915b505050505081565b60018054610819906110d3565b60408051808201909152600080825260208201526007541561091b57600780546108d3906001906110aa565b815481106108e3576108e36110bd565b60009182526020918290206040805180820190915260029092020180548252600101546001600160a01b031691810191909152919050565b506040805180820190915260025481526005546001600160a01b0316602082015290565b60606007805480602002602001604051908101604052809291908181526020016000905b828210156109ab5760008481526020908190206040805180820190915260028502909101805482526001908101546001600160a01b0316828401529083529092019101610963565b50505050905090565b6109f86040518060c0016040528060006001600160a01b03168152602001606081526020016000815260200160008152602001600081526020016000151581525090565b60006040518060c00160405280306001600160a01b0316815260200160008054610a21906110d3565b80601f0160208091040260200160405190810160405280929190818152602001828054610a4d906110d3565b8015610a9a5780601f10610a6f57610100808354040283529160200191610a9a565b820191906000526020600020905b815481529060010190602001808311610a7d57829003601f168201915b505050918352505060025460208201526004546040820152426060820152600654600160a01b900460ff16151560809091015292915050565b33600090815260036020526040812054610aed81846110aa565b9392505050565b6005546001600160a01b03163314610b5a5760405162461bcd60e51b815260206004820152602360248201527f6f6e6c792063726561746f722063616e20646f2074686973206f7065726174696044820152626f6e2160e81b60648201526084016103b1565b600454421061051c576006805460ff60a01b1916600160a01b17905560075415610bbc576005546002546040516001600160a01b039092169181156108fc0291906000818181858888f19350505050158015610bba573d6000803e3d6000fd5b505b565b6004544210610c0f5760405162461bcd60e51b815260206004820152601d60248201527f6f682c2061756374696f6e20616c72656164792066696e69736865642e00000060448201526064016103b1565b60025433600090815260036020526040902054610c2c903461110d565b11610c8c5760405162461bcd60e51b815260206004820152602a60248201527f796f75206e65656420746f2062696420686967686572207468616e206375727260448201526932b73a10383934b1b29760b11b60648201526084016103b1565b6005546001600160a01b03163303610ce65760405162461bcd60e51b815260206004820152601d60248201527f6f776e6572206f662061756374696f6e2063616e206e6f74206269642100000060448201526064016103b1565b3360009081526003602052604081208054349290610d0590849061110d565b9091555050336000818152600360209081526040808320548151808301909252808252918101848152600780546001810182559452815160029485027fa66cc928b5edb82af9bd49922954155ab7b0942694bea4ce44661d9a8736c68881019190915590517fa66cc928b5edb82af9bd49922954155ab7b0942694bea4ce44661d9a8736c68990910180546001600160a01b03929092166001600160a01b0319928316179055928290556006805490931690931790915590610dc842609661110d565b6004555050565b6000815180845260005b81811015610df557602081850181015186830182015201610dd9565b506000602082860101526020601f19601f83011685010191505092915050565b60008151808452602080850194506020840160005b83811015610e6357610e50878351805182526020908101516001600160a01b0316910152565b6040969096019590820190600101610e2a565b509495945050505050565b60208152610e886020820183516001600160a01b03169052565b60006020830151610140806040850152610ea6610160850183610dcf565b91506040850151601f1980868503016060870152610ec48483610dcf565b935060608701519150610ee260808701836001600160a01b03169052565b608087015160a087015260a087015160c087015260c08701519150610f1260e08701836001600160a01b03169052565b60e0870151610100878101919091528701519150610120610f368188018415159052565b870151868503909101838701529050610f4f8382610e15565b9695505050505050565b600060208284031215610f6b57600080fd5b5035919050565b602081526000610aed6020830184610dcf565b815181526020808301516001600160a01b031690820152604081015b92915050565b602080825282518282018190526000919060409081850190868401855b82811015610ffa57610fea848351805182526020908101516001600160a01b0316910152565b9284019290850190600101610fc4565b5091979650505050505050565b602080825282516001600160a01b03168282015282015160c0604083015260009061103560e0840182610dcf565b90506040840151606084015260608401516080840152608084015160a084015260a0840151151560c08401528091505092915050565b60006020828403121561107d57600080fd5b81356001600160a01b0381168114610aed57600080fd5b634e487b7160e01b600052601160045260246000fd5b81810381811115610fa157610fa1611094565b634e487b7160e01b600052603260045260246000fd5b600181811c908216806110e757607f821691505b60208210810361110757634e487b7160e01b600052602260045260246000fd5b50919050565b80820180821115610fa157610fa161109456fea26469706673582212201af2f99ff12b0d19f02830a53e4ebcd6d01f2ae0aff6fa65f3657ad478aec2dd64736f6c63430008180033",
  "linkReferences": {},
  "deployedLinkReferences": {}
}